:020000040800F2
:10000000D0050020C900000815100008190F0008CD
:1000100000000000000000000000000000000000E0
:10002000000000000000000000000000191000089F
:100030000000000000000000171000081B1000085E
:10004000DB00000800000000DB000008DB00000807
:10005000DB000008DB000008DB000008DB00000814
:1000600000000000DB000008DB000008DB000008E7
:10007000DB000008DB000008DB00000800000000D7
:10008000DB000008DB00000800000000DB000008C7
:10009000DB000008DB000008DB000008DB000008D4
:1000A000DB000008DB000008DB0000087514000816
:1000B000851400080348854600F0A0F80048004772
:1000C000B5160008D00500200448804704480047C2
:1000D000FEE7FEE7FEE7FEE7FEE7FEE77F1000082B
:1000E000B500000830B50B4601460020202201244F
:1000F00009E00D46D5409D4205D31D469540491B5C
:100100002546954040191546521E002DF1DC30BDA4
:10011000F0B51FB40646002082B005464024019188
:1001200000901BE0019922460F46304600F020F86F
:10013000049A059B801A994110D31046194622460D
:1001400000F04BF8361A8F4101972246012000211A
:10015000009F00F042F838184D4100902046641E80
:100160000028DFDC019B00982946324607B0F0BD2D
:1001700010B5202A04DB0846203AD040002110BDEB
:100180000B46D340D0402024A21A91400843194680
:1001900010BD03460B439B0703D009E008C9121F9B
:1001A00008C0042AFAD203E00B780370401C491CF3
:1001B000521EF9D27047D2B201E00270401C491EB3
:1001C000FBD270470022F6E710B513460A460446F4
:1001D0001946FFF7F0FF204610BD10B5202A04DBBA
:1001E0000146203A9140002010BD914020239C1AE6
:1001F0000346E3401943904010BD0000064C012522
:10020000064E05E0E36807CC2B430C3C98471034BE
:10021000B442F7D3FFF752FF6819000888190008A5
:10022000704770B50024014620314A78022A03D075
:1002300004218163012416E0026813680E25AB4394
:100240001360026813685B085B0013600122056C91
:100250001346AB40C56B6B604A7000220A70416B5D
:10026000002900D08847204670BD000070B50446C4
:1002700000F0BEF80546601C02D00448007824183F
:1002800000F0B6F8401BA042FAD370BD0400002075
:10029000F8B500238DE001249C40A44622407DD087
:1002A0004C68022C01D0122C0CD1DC08A4002718B9
:1002B0003C6A5D07ED0E0F26AE40B4430E69AE40BA
:1002C00026433E6205685E000324B4400F79A543CF
:1002D000BF07BF0FB7402F4307604D68012D05D002
:1002E000022D03D0112D01D0122D0ED18568CF68BB
:1002F000A543B7402F43876047686546AF430D79F4
:10030000ED06ED0F9D403D434560C568A5438C68F3
:10031000B4402C43C4604C68E40049D5284CA5691E
:1003200001263543A561A4699D0834400094254CFD
:10033000AD002F19BC689D072E0F0F25B540AC43AB
:100340000925ED06A84201D100250FE01E4DA84267
:1003500001D101250AE01D4DA84201D1022505E089
:100360001B4DA84201D1032500E00525B5402543DA
:10037000BD60184C25684E689543F60300D51543BB
:10038000256065684E689543B60300D515436560E2
:10039000A5684E689543F60202D500E008E01543D3
:1003A000A560E5684E689543B60200D51543E56043
:1003B0005B1C0A681446DC4000D06CE7F8BD000006
:1003C00000100240000001400004004800080048FE
:1003D000000C00480004014042690A4200D00904B0
:1003E00081617047002A01D0816170478162704746
:1003F00001488068704700000400002002488168BE
:1004000002788918816070470400002010B5064802
:100410000168102211430160002000F007F800F08D
:1004200027F8002010BD00000020024070B50446EF
:100430000D4D7D202978C000FFF754FE01460B4882
:100440000068FFF74FFE00F043FB002809D1042CA1
:1004500007D200222146401E00F02AF800206C60DE
:1004600070BD012070BD00000400002010000020BD
:1004700008B50848816901221143816181691140F1
:100480000091C26901040A43C261C069084000903A
:1004900008BD000000100240002805DBC106C90E9F
:1004A00001208840014908607047000000E100E039
:1004B00010B501F017F810BDF8B505460068354CC9
:1004C000C00352D5E0690026C00007D4E1692004CA
:1004D0000143E161E1690140012600912E48016874
:1004E000C90510D40168821511430160FFF780FF30
:1004F000074604E0FFF77CFFC01B642824D8264889
:100500000068C005F6D5206A03273F02384020D096
:100510006968394081421CD0206A226AB8430121AF
:1005200009040A432262226A8A4322622062C007C7
:100530000FD0FFF75DFF009008E0FFF759FF00992B
:10054000411A1648814201D90320F8BD206A80076C
:10055000F3D5206A6968B84308432062002E04D0AE
:10056000E169012000078143E1612878C00705D0D7
:10057000206BA968800880000843206328788006E3
:1005800005D5206B10218843E968084320630020CB
:10059000F8BD000000100240007000408813000009
:1005A000F8B50F46060059D03A4D2868C007C00F6D
:1005B000B84209D2286840084000384328602868BB
:1005C000C007C00FB84249D13068334C81070CD501
:1005D000400704D56068072109020843606060682D
:1005E000F0218843B168084360603078C00726D0A6
:1005F000706801280ED0216802280ED089070029D2
:100600002CDA61688908890001436160FFF7F0FE18
:1006100000900DE021688903F1E78901EFE7FFF71A
:10062000E7FE0099411A1D48814201D90320F8BD17
:1006300060680C210840716889008842EFD1286801
:10064000C007C00FB8420BD92868400840003843A3
:1006500028602868C007C00FB84201D00120F8BD4B
:100660003078400706D56068072109028843F168A1
:100670000843606000F028F86168094A0906090F1C
:10068000515CC840074908600020FFF7CFFE0020FA
:10069000F8BD000000200240001002408813000056
:1006A0004E190008100000200448054900684968F8
:1006B000044A4905490F515CC840704710000020AA
:1006C000001002405E19000810B514A30FCB88B0CB
:1006D0006C460FC415A30FCB0FC4184A51680C20E9
:1006E0000B4603401648042B16D0082B14D18B025E
:1006F0001B0F6C46E45CD26A04AB1207120F9A5CC3
:10070000C90305D500231946FFF702FD214601E084
:1007100020460C4900F0CEFE08B010BD02030405CF
:10072000060708090A0B0C0D0E0F10100102030436
:1007300005060708090A0B0C0D0E0F1000100240E9
:1007400000127A0000093D00FEB5040070D0207848
:10075000DC4DC0074AD068680007800F012807D029
:1007600068680007800F022809D16868C00306D5B1
:10077000286880033AD560680028E7D036E06168D1
:10078000012914D001208004002901D0052914D0AA
:100790002A68012109048A432A6029688143296063
:1007A0006068002816D0FFF723FE06460EE0286892
:1007B0000121090408432860F2E729680143296000
:1007C000F5E7FFF715FE801B64286ED828688003C4
:1007D000F7D50BE0FFF70CFE064604E0FFF708FE36
:1007E000801B6428F1D828688003F7D4207801267C
:1007F000800700283CDA68680007800F07D0686827
:100800000007800F022809D16868C00306D4286851
:10081000800716D5E06801280AD112E0E0680028B8
:10082000286816D030432860FFF7E2FD074605E050
:1008300043E1FFF7DDFDC01B0228C6D8286880070A
:10084000F7D52868F82188432169C9000843286042
:100850000EE0400840002860FFF7CAFD074604E0AC
:10086000FFF7C6FDC01B0228AFD828688007F7D461
:100870002078000722D5E0690028686A0ED030434E
:100880006862FFF7B5FD074604E0FFF7B1FDC01B46
:1008900002289AD8686A8007F7D50FE04008400020
:1008A0006862FFF7A5FD074605E09DE0FFF7A0FDA4
:1008B000C01B022889D8686A8007F7D420780427EB
:1008C0004007002860DA00200190E869C00008D4E1
:1008D000E969B8060143E961E96901400120009135
:1008E000019079480168C90511D401688215114346
:1008F0000160FFF77DFD009005E0FFF779FD0099AD
:10090000401A642870D870480068C005F5D5A06802
:1009100001280AD0002801D0052810D0286A4008F4
:1009200040002862286AB84301E0286A3043286200
:10093000A068002812D0FFF75BFD00900AE0286A4B
:1009400038432862F1E7FFF753FD0099411A5F48E9
:10095000814249D8286A8007F5D50DE0FFF748FDA8
:10096000009006E0FFF744FD0099411A5748814284
:100970003AD8286A8007F5D40198002804D0E9699C
:10098000012000078143E9612078C00635D5606900
:1009900001280CD0401D686B23D038436863686B16
:1009A000400840006863FFF723FD064622E0686BBD
:1009B00038436863686B30436863FFF719FD064688
:1009C00004E0FFF715FD801B02285BD8686B8007E9
:1009D000F7D5686BF8218843A169C90008436863AB
:1009E0000BE0B8436863F4E74CE0FFF701FD801BC0
:1009F000022847D8686B8007F7D4206A00285ED0A9
:100A000069680907890F022942D0012636060228A3
:100A1000286805D0B0432860FFF7EAFC044633E0BD
:100A2000B0432860FFF7E4FC074604E0FFF7E0FC72
:100A3000C01B022826D828688001F7D4E86AE16A3A
:100A4000000900010843E862616AA06A0843696816
:100A50003D221204914308436860286830432860AF
:100A6000FFF7C6FC044604E0FFF7C2FC001B0228A7
:100A700008D828688001F7D521E0FFF7B9FC001BF2
:100A8000022801D90320FEBD28688001F5D416E0B4
:100A90000128F8D06868E96A01221204636A0240FA
:100AA0009A420AD10907E26A090F914205D10F2142
:100AB00089040840A16A884201D00120FEBD0020BF
:100AC000FEBD0000001002400070004088130000CE
:100AD000094910B5401E884201D9012010BD074CBC
:100AE00060610321081F00F0FDFC0020A0610720C9
:100AF0002061002010BD0000FFFFFF0000E000E0CB
:100B000070470000F8B502680446D0691168936820
:100B10004C4D06462E402025002E68D0DE07F60FED
:100B2000FF2721370F40374375D0C70706D0CF05C1
:100B300004D501271762E26F3A43E267820708D5BE
:100B4000DA0706D0276802223A62E26F04273A43A6
:100B5000E267420708D5DA0706D0236804221A6242
:100B6000E26F02231A43E267020709D50A462A40C8
:100B7000324305D0236808221A62E36F1343E36708
:100B8000020508D54A0106D501222368D2021A625D
:100B9000E26F2A43E267E26F002A30D0800606D572
:100BA000880604D5216E002901D020468847E06FD1
:100BB00021688968490602D42821084224D02046A9
:100BC00000F0FEFA20688168490619D58168402244
:100BD00091438160E06E002812D01B494163E06EB2
:100BE000FFF71FFB00280AD0E06E416B06E083068A
:100BF00011D58B060FD5216E12E020468847F8BD2F
:100C00002046FFF77DFFF8BD2046FFF779FF002063
:100C1000E067F8BDFFE7030605D50B0603D5616E57
:100C20000029EAD1F5E74006F3D54806F1D5116869
:100C3000204640239943116065670021616600F0FA
:100C40006AF9E6E70F080000AD11000810B50400CE
:100C500003D0606F002802D007E0012010BD002102
:100C600070200155204600F027F824206067206896
:100C70000168490849000160204600F009FB01288D
:100C8000ECD0606A002802D0204600F0F9F9206814
:100C900041680122D20291434160206881680822A4
:100CA0009143816020680168012211430160204660
:100CB00000F04CFA10BD0000F0B587B004461421D6
:100CC0006846FFF77FFA254F01232668092024494B
:100CD0005B04022501220324C006BE421CD18F6999
:100CE000960337438F618F69374005974E691E43DE
:100CF0004E61496902921940059161020091019586
:100D0000039404926946FFF7C3FA002211461B20A0
:100D1000FFF7CEFB1B201DE0124FBE421CD1CE6957
:100D20001E43CE61CE691E4005964E691E434E613C
:100D300049690292194005910C2100910195039493
:100D400004926946FFF7A4FA002211461C20FFF71F
:100D5000AFFB1C20FFF7A0FB07B0F0BD003801403F
:100D60000010024000440040F0B5836F202B49D1B1
:100D700000290AD0002A08D08568DC01A54206D1E6
:100D80000369002B03D1CB0701D00120F0BD03463E
:100D900060331E7C012E35D001271F74416501464A
:100DA00040310A834A830022FF260266A54204D10D
:100DB0000569002D22D1144D1EE0002D18D08A8324
:100DC000C2672221816701688D683D438D6081681B
:100DD000A14202D10169002912D00C4901661A749E
:100DE00000680168FF222132114301600020F0BD3C
:100DF0000569002D02D07F258D83E1E78E83DFE733
:100E00000349EBE70220F0BDFF01000039120008A2
:100E1000E111000810B504460068084988420BD16A
:100E200001220749074800F04DFD01200449024610
:100E300048702046FFF798FF10BD000000440040B6
:100E40000000002018000020FFB50446406F83B06A
:100E500017460D4620285CD1002D0AD0002F08D05F
:100E6000A168C001814207D12069002804D1E807A8
:100E700002D0012007B0F0BD204660300290007C17
:100E8000012846D00298012101740020E06721204A
:100E90006067FFF7ADFA26464036019037827782C9
:100EA0000120A1680003814202D12069002802D0FC
:100EB0002F46002511E000270FE000228021204668
:100EC00000F08AFA002815D1002F15D02168387853
:100ED00008857F1C708A401E7082708A019B0028E2
:100EE00006980090E9D100224021204600F074FAD3
:100EF000002808D00320BDE728882168C005C00D60
:100F00000885AD1CE6E72020606702990020087480
:100F1000B0E70220AEE77047FEE70000F0B587B00B
:100F200014216846FFF74EF91C48426901218905E2
:100F30000A43426142690A400592426949110A43E3
:100F4000426142690A400592426949000A4342618E
:100F5000406909260840F606059001221021304616
:100F6000FFF740FA0E4F012211463846FFF73AFAD2
:100F700010200124002500900194694603950294F5
:100F80003046FFF785F90094019469463846039589
:100F90000294FFF77DF907B0F0BD00000010024099
:100FA0000004004810B50C480A4901604B21C901F2
:100FB000416000218160C16001618161C1610C22D9
:100FC000016242614162FFF741FE002801D0FFF754
:100FD00027F910BD00380140CC00002010B50C48A6
:100FE0000A490160E1214902416000218160C1603C
:100FF00001618161C1610C22016242614162FFF7BE
:1010000025FE002801D0FFF70BF910BD0044004079
:101010004C01002070477047704710B5FFF7EEF99C
:1010200010BD70B594B030216846FFF7CBF80024AE
:101030000E94139410200994022504900D940F949B
:101040000520129401260095C0040C941094039678
:101050000A90119408950B946846FFF775FB0720DA
:101060000C900E9401210D950F940CA8FFF798FA9F
:1010700010A810961294FFF71FFA14B070BD7047B5
:1010800010B5818CC90707D001684A6801235B0449
:101090009A43836A1A434A60818C890707D501689D
:1010A0004A6801231B049A43C36A1A434A60818C2D
:1010B000490707D501684A6801239B049A43036BDB
:1010C0001A434A60818C090707D501684A680123E1
:1010D000DB039A43436B1A434A60818CC90607D5E8
:1010E0000268916801231B039943836B1943916044
:1010F000818C890607D501688A6801235B039A43BE
:10110000C36B1A438A60818C490612D503685A68FA
:1011100001210905046C8A4322435A60026C8A4209
:1011200007D10268516803235B059943436C194357
:101130005160818C090607D501684A680123DB04E8
:10114000806C9A4302434A6010BD0000F8B5002647
:101150000446C667FFF74CF9054620680068124F41
:10116000000709D501212B4600224905204600979A
:1011700000F032F900280DD12068006840070BD537
:1011800001212B46002289052046009700F024F912
:10119000002801D00320F8BD20206067A0676034DC
:1011A00026740020F8BD0000FFFFFF0110B5406A63
:1011B0000022014640314A834A82FFF7A1FC10BD5C
:1011C00001680A68FF2321339A430A6001688A682C
:1011D000520852008A602021816700210166704711
:1011E00010B5014640318B8B846F0268222C04D0ED
:1011F000906908210843906110BD928C446D1A409B
:101200002280426D921C42654A8B521E4A83498B52
:101210000029F1D101680A68FF2321339A430A604B
:1012200001688A68520852008A6020218167002183
:101230000166FFF7EFFD10BD10B5014640318B8B05
:10124000846F0268222C04D09069082108439061C1
:1012500010BD928C1A40436D1A70426D521C42654B
:101260004A8B521E4A83498B0029F1D101680A68D2
:10127000FF2321339A430A6001688A6852085200AA
:101280008A602021816700210166FFF7C3FD10BD40
:1012900070B5044680682169E269084361690025E8
:1012A0001143226808431168444B194001431160FF
:1012B00021684868032212039043E26810434860A3
:1012C000A169206A2268084391680B231B02994395
:1012D000014391603A492068884210D13948006B37
:1012E0008007800F11D0012805D0022805D00328DF
:1012F0000AD1022009E0042007E0082005E0324975
:10130000884201D1002000E010200122E169D203CF
:101310002E4E914228D1002806D0022807D004285A
:1013200017D0082844D11AE0FFF7BEF913E061682E
:10133000274A48088018FEF7D5FE80B201461039CA
:10134000B14235D82149491C01400007400F0843EC
:1013500021E0FFF7B9F9616840004A08EAE76168EF
:10136000012248081204E5E7002806D0022807D029
:10137000042813D008281BD116E0FFF795F90FE0D9
:101380006168144A480811E0FEF7ACFE80B20146DD
:101390001039B1420CD82168C8600AE0FFF794F90F
:1013A00061684A081018EFE7616848088018EBE7A1
:1013B0000125002020666066284670BDF369FFFFA6
:1013C000003801400010024000440040EFFF0000E0
:1013D0000024F40000127A00FFB581B005460F46E4
:1013E000044660350A9E38E0701C36D0FFF700F8DE
:1013F0000499401AB04221D8002E1FD020680168FD
:1014000049072AD5C069C043000526D401202168B8
:10141000C002086220680168FF22A1329143016086
:101420002068816849084900816020206067A067C2
:10143000E06700202874032005B0F0BD2068016833
:10144000FF22A13291430160206881684908490068
:10145000816020206067A067EBE72068C16938469B
:10146000884305D0002103988142BDD00020E3E7E6
:101470000121F8E710B50248FFF744FB10BD00005A
:10148000CC00002010B50248FFF73CFB10BD000067
:101490004C0100200FB410B503A9044B044A029874
:1014A00000F052F810BC08BC04B0184799160008A8
:1014B00014000020F8B5040C8BB2264682B25E43BD
:1014C0000D0C1046370C5843360480190021794121
:1014D00016466E43370C36048019794126466E4312
:1014E0008919F8BD8307FF22DB0E9A408907090E90
:1014F0009940002808DB830809489B001B181868DE
:1015000090430843186070470007000F08388308AD
:1015100004489B001B18D86990430843D861704762
:1015200000E400E000ED00E002E008C8121F08C17E
:10153000002AFAD170477047002001E001C1121F54
:10154000002AFBD170470000FFB58DB0044600258E
:1015500006E025280AD0109A0F999047641C6D1C4C
:1015600020780028F5D1284611B0F0BD00270121D0
:10157000484A009700E00743641C23780846203B54
:1015800098401042F7D120782E2817D10420074325
:101590006078641C2A280CD10E98641C02C8009143
:1015A0000E900BE000990A22514330394018641C18
:1015B00000902078014630390929F3D92078002895
:1015C000D1D0642808D0692806D075281ED0109A7A
:1015D0000F9990476D1C5BE00A200E99019001C99C
:1015E0000E91002802DA40422D2102E0390504D58F
:1015F0002B216A461172012103E0F90704D0202152
:10160000F7E70BAE0B910DE00021FAE70A200E99E7
:10161000019001C90E91F7E70199FEF763FD3031A2
:10162000761E31700028F7D103A8801B203001906E
:10163000780701D5009801E00120009001998842C7
:1016400001DD401A00E000200027009006E002A81B
:10165000109AC05D0F9990476D1C7F1C0B988742B4
:10166000F5DB04E0109A30200F9990476D1C00992B
:10167000481E00900029F5DC05E03078109A761CB1
:101680000F9990476D1C0199481E01900029F4DCC8
:10169000641C65E70928010013B5044B0122694663
:1016A0000348FFF7D1FB00981CBD0000FFFF0000BE
:1016B0004C010020FEF7AAFEFFF7B3FCFFF72EFC5B
:1016C000FFF78CFCFFF76EFC25A0FFF7E3FE2A492D
:1016D00096220846143800F09EF8012802D027A070
:1016E000FFF7D8FE01222D492D48FFF73DFB224D83
:1016F0000A262A4F96356420FEF7B8FD01212948B5
:10170000FEF76AFEBE701CE028783F2819D102243B
:1017100008E019490A2296310846AA3800F08DF8E7
:10172000641CE4B26878A042F3D80024295D1EA0AE
:10173000FFF7B0FE641CE4B20A2CF7D31CA0FFF73D
:10174000A9FE0D490A2296310846AA3800F075F81C
:101750000006000ED8D1C820FEF788FDCBE70000B8
:1017600072696E676275666620506F727420427986
:1017700020464A540D0A00002C0000207573617247
:1017800074312072696E676275666620696E69746D
:10179000206661696C2E0D0A000000000000002028
:1017A0004C010020000400485B25645D000000003F
:1017B0006F7665720D0A000000280BD001680029C1
:1017C00008D04168002905D0C26881688A4203D1E7
:1017D000406808E000207047914201D9881A02E071
:1017E0004068511A401A401E7047002809D001680D
:1017F000002906D04168002903D0C26881688A4266
:1018000001D1002070478A4201D9501A70474068C0
:10181000891A401A704770B515460E4604000AD062
:10182000002E08D0002D06D01421FEF7CBFC6560F9
:101830002660012070BD002070BDF8B5134604007D
:101840000E461AD02068002817D06068002814D0EF
:10185000002E12D0002B10D02046FFF7C6FF984272
:1018600000D31846070008D06068A168401AB84243
:1018700005D26068A168451A02E00020F8BD3D4627
:101880002068A1682A4641183046FEF782FCA0680D
:101890004019A0607F1B05D0216870193A46FEF7F9
:1018A00078FCA760A0686168884201D30020A0602E
:1018B0002069002804D02369EA19002120469847AE
:1018C000E819F8BDF8B5134604000E461AD0206892
:1018D000002817D06068002814D0002E12D0002BEA
:1018E00010D02046FFF768FF984200D31846070043
:1018F00008D06068E168401AB84205D26068E168C3
:10190000451A02E00020F8BD3D462068E1682A46FD
:1019100040183146FEF73DFCE0684019E0607F1B4F
:1019200005D0206871193A46FEF733FCE760E0689D
:101930006168884201D30020E0602069002804D05B
:101940002369EA19012120469847E819F8BD0000EB
:10195000000000000000010203040607080900005F
:1019600000000102030400008819000800000020A4
:101970001800000028150008A01900081800002011
:10198000B805000038150008000000000100000044
:10199000040000000000000000127A0000000000B7
:04000005080000B53A
:00000001FF
